{
  "contractName": "FYP",
  "abi": [
    {
      "anonymous": false,
      "inputs": [
        {
          "indexed": false,
          "internalType": "int256",
          "name": "transactionID",
          "type": "int256"
        }
      ],
      "name": "TransactionBlockInitialized",
      "type": "event"
    },
    {
      "inputs": [
        {
          "internalType": "string",
          "name": "",
          "type": "string"
        }
      ],
      "name": "TransactionLedger",
      "outputs": [
        {
          "internalType": "int256",
          "name": "transactionID",
          "type": "int256"
        },
        {
          "internalType": "string",
          "name": "farmerId",
          "type": "string"
        },
        {
          "internalType": "string",
          "name": "companyId",
          "type": "string"
        },
        {
          "internalType": "string",
          "name": "requestId",
          "type": "string"
        },
        {
          "internalType": "uint256",
          "name": "dateRequestPosted",
          "type": "uint256"
        },
        {
          "internalType": "uint256",
          "name": "dateRequestAccepted",
          "type": "uint256"
        },
        {
          "internalType": "enum FYP.TransactionStatus",
          "name": "transactionStatus",
          "type": "uint8"
        }
      ],
      "stateMutability": "view",
      "type": "function",
      "constant": true
    },
    {
      "inputs": [],
      "name": "transactions",
      "outputs": [
        {
          "internalType": "int256",
          "name": "",
          "type": "int256"
        }
      ],
      "stateMutability": "view",
      "type": "function",
      "constant": true
    },
    {
      "inputs": [
        {
          "internalType": "uint256",
          "name": "dateRequestPosted",
          "type": "uint256"
        },
        {
          "internalType": "string",
          "name": "farmerId",
          "type": "string"
        },
        {
          "internalType": "string",
          "name": "companyId",
          "type": "string"
        },
        {
          "internalType": "string",
          "name": "requestId",
          "type": "string"
        }
      ],
      "name": "initTransactionBlock",
      "outputs": [
        {
          "internalType": "int256",
          "name": "",
          "type": "int256"
        }
      ],
      "stateMutability": "nonpayable",
      "type": "function"
    },
    {
      "inputs": [
        {
          "internalType": "string",
          "name": "requestId",
          "type": "string"
        }
      ],
      "name": "deleteRequest",
      "outputs": [],
      "stateMutability": "nonpayable",
      "type": "function"
    }
  ],
  "bytecode": "0x60806040526000805534801561001457600080fd5b50610bb7806100246000396000f3fe608060405234801561001057600080fd5b506004361061004c5760003560e01c80631801519114610051578063a8edc3af1461006f578063aa88ee8e1461008b578063c2ebaf79146100c1575b600080fd5b6100596100f1565b60405161006691906105ca565b60405180910390f35b6100896004803603810190610084919061073f565b6100f7565b005b6100a560048036038101906100a0919061073f565b6101a2565b6040516100b897969594939291906108a0565b60405180910390f35b6100db60048036038101906100d69190610950565b61039f565b6040516100e891906105ca565b60405180910390f35b60005481565b6000600181111561010b5761010a610829565b5b60018260405161011b9190610a47565b908152602001604051809103902060060160009054906101000a900460ff16600181111561014c5761014b610829565b5b1461015657600080fd5b600180826040516101679190610a47565b908152602001604051809103902060060160006101000a81548160ff0219169083600181111561019a57610199610829565b5b021790555050565b6001818051602081018201805184825260208301602085012081835280955050505050506000915090508060000154908060010180546101e190610a8d565b80601f016020809104026020016040519081016040528092919081815260200182805461020d90610a8d565b801561025a5780601f1061022f5761010080835404028352916020019161025a565b820191906000526020600020905b81548152906001019060200180831161023d57829003601f168201915b50505050509080600201805461026f90610a8d565b80601f016020809104026020016040519081016040528092919081815260200182805461029b90610a8d565b80156102e85780601f106102bd576101008083540402835291602001916102e8565b820191906000526020600020905b8154815290600101906020018083116102cb57829003601f168201915b5050505050908060030180546102fd90610a8d565b80601f016020809104026020016040519081016040528092919081815260200182805461032990610a8d565b80156103765780601f1061034b57610100808354040283529160200191610376565b820191906000526020600020905b81548152906001019060200180831161035957829003601f168201915b5050505050908060040154908060050154908060060160009054906101000a900460ff16905087565b60006040518060e001604052806000548152602001858152602001848152602001838152602001868152602001428152602001600060018111156103e6576103e5610829565b5b8152506001836040516103f99190610a47565b908152602001604051809103902060008201518160000155602082015181600101908051906020019061042d92919061050e565b50604082015181600201908051906020019061044a92919061050e565b50606082015181600301908051906020019061046792919061050e565b506080820151816004015560a0820151816005015560c08201518160060160006101000a81548160ff021916908360018111156104a7576104a6610829565b5b02179055509050507fc3a1c294be4e658e31b70802689f0ca81d1b658cf22cd6d403a78d5e28188f386000546040516104e091906105ca565b60405180910390a160016000808282546104fa9190610aed565b925050819055506000549050949350505050565b82805461051a90610a8d565b90600052602060002090601f01602090048101928261053c5760008555610583565b82601f1061055557805160ff1916838001178555610583565b82800160010185558215610583579182015b82811115610582578251825591602001919060010190610567565b5b5090506105909190610594565b5090565b5b808211156105ad576000816000905550600101610595565b5090565b6000819050919050565b6105c4816105b1565b82525050565b60006020820190506105df60008301846105bb565b92915050565b6000604051905090565b600080fd5b600080fd5b600080fd5b600080fd5b6000601f19601f8301169050919050565b7f4e487b7100000000000000000000000000000000000000000000000000000000600052604160045260246000fd5b61064c82610603565b810181811067ffffffffffffffff8211171561066b5761066a610614565b5b80604052505050565b600061067e6105e5565b905061068a8282610643565b919050565b600067ffffffffffffffff8211156106aa576106a9610614565b5b6106b382610603565b9050602081019050919050565b82818337600083830152505050565b60006106e26106dd8461068f565b610674565b9050828152602081018484840111156106fe576106fd6105fe565b5b6107098482856106c0565b509392505050565b600082601f830112610726576107256105f9565b5b81356107368482602086016106cf565b91505092915050565b600060208284031215610755576107546105ef565b5b600082013567ffffffffffffffff811115610773576107726105f4565b5b61077f84828501610711565b91505092915050565b600081519050919050565b600082825260208201905092915050565b60005b838110156107c25780820151818401526020810190506107a7565b838111156107d1576000848401525b50505050565b60006107e282610788565b6107ec8185610793565b93506107fc8185602086016107a4565b61080581610603565b840191505092915050565b6000819050919050565b61082381610810565b82525050565b7f4e487b7100000000000000000000000000000000000000000000000000000000600052602160045260246000fd5b6002811061086957610868610829565b5b50565b600081905061087a82610858565b919050565b600061088a8261086c565b9050919050565b61089a8161087f565b82525050565b600060e0820190506108b5600083018a6105bb565b81810360208301526108c781896107d7565b905081810360408301526108db81886107d7565b905081810360608301526108ef81876107d7565b90506108fe608083018661081a565b61090b60a083018561081a565b61091860c0830184610891565b98975050505050505050565b61092d81610810565b811461093857600080fd5b50565b60008135905061094a81610924565b92915050565b6000806000806080858703121561096a576109696105ef565b5b60006109788782880161093b565b945050602085013567ffffffffffffffff811115610999576109986105f4565b5b6109a587828801610711565b935050604085013567ffffffffffffffff8111156109c6576109c56105f4565b5b6109d287828801610711565b925050606085013567ffffffffffffffff8111156109f3576109f26105f4565b5b6109ff87828801610711565b91505092959194509250565b600081905092915050565b6000610a2182610788565b610a2b8185610a0b565b9350610a3b8185602086016107a4565b80840191505092915050565b6000610a538284610a16565b915081905092915050565b7f4e487b7100000000000000000000000000000000000000000000000000000000600052602260045260246000fd5b60006002820490506001821680610aa557607f821691505b602082108103610ab857610ab7610a5e565b5b50919050565b7f4e487b7100000000000000000000000000000000000000000000000000000000600052601160045260246000fd5b6000610af8826105b1565b9150610b03836105b1565b9250817f7fffffffffffffffffffffffffffffffffffffffffffffffffffffffffffffff03831360008312151615610b3e57610b3d610abe565b5b817f8000000000000000000000000000000000000000000000000000000000000000038312600083121615610b7657610b75610abe565b5b82820190509291505056fea264697066735822122026b540876e506cf7bbbb7ffae3272edabefaec2ab98b48acbbe9311800a0bce764736f6c634300080e0033",
  "immutableReferences": {},
  "source": "//SPDX-License-Identifier: UNLICENSED\r\npragma solidity ^0.8.0;\r\n\r\ncontract FYP {\r\n    int256 public transactions = 0;\r\n    mapping(string => Transaction) public TransactionLedger;\r\n\r\n    enum TransactionStatus {\r\n        Accepted,\r\n        Cancelled\r\n    }\r\n\r\n    event TransactionBlockInitialized(int256 transactionID);\r\n\r\n    struct Transaction {\r\n        int256 transactionID;\r\n        string farmerId;\r\n        string companyId;\r\n        string requestId;\r\n        uint256 dateRequestPosted;\r\n        uint256 dateRequestAccepted;\r\n        TransactionStatus transactionStatus;\r\n    }\r\n\r\n    function initTransactionBlock(\r\n        uint256 dateRequestPosted,\r\n        string memory farmerId,\r\n        string memory companyId,\r\n        string memory requestId\r\n    ) public returns (int256) {\r\n        TransactionLedger[requestId] = Transaction({\r\n            transactionID: transactions,\r\n            farmerId: farmerId,\r\n            companyId: companyId,\r\n            requestId: requestId,\r\n            dateRequestPosted: dateRequestPosted,\r\n            dateRequestAccepted: block.timestamp,\r\n            transactionStatus: TransactionStatus.Accepted\r\n        });\r\n        emit TransactionBlockInitialized(transactions);\r\n        transactions += 1;\r\n        return transactions;\r\n    }\r\n\r\n    function deleteRequest(string memory requestId) public {\r\n        require(\r\n            TransactionLedger[requestId].transactionStatus ==\r\n                TransactionStatus.Accepted\r\n        );\r\n        TransactionLedger[requestId].transactionStatus = TransactionStatus\r\n            .Cancelled;\r\n    }\r\n}\r\n",
  "sourcePath": "D:\\Code Files\\Final Year\\FYP-backend\\Contracts\\contracts\\FYP.sol",
  "compiler": {
    "name": "solc",
    "version": "0.8.14+commit.80d49f37.Emscripten.clang"
  },
  "schemaVersion": "3.4.7",
  "updatedAt": "2023-01-31T15:09:23.858Z",
  "networkType": "ethereum",
  "devdoc": {
    "kind": "dev",
    "methods": {},
    "version": 1
  },
  "userdoc": {
    "kind": "user",
    "methods": {},
    "version": 1
  }
}