{
  "contractName": "FYP",
  "abi": [
    {
      "inputs": [
        {
          "internalType": "int256",
          "name": "",
          "type": "int256"
        }
      ],
      "name": "TransactionLedger",
      "outputs": [
        {
          "internalType": "int256",
          "name": "transactionID",
          "type": "int256"
        },
        {
          "internalType": "address",
          "name": "farmerAddress",
          "type": "address"
        },
        {
          "internalType": "address",
          "name": "storeAddress",
          "type": "address"
        },
        {
          "internalType": "uint256",
          "name": "dateRequestPosted",
          "type": "uint256"
        },
        {
          "internalType": "uint256",
          "name": "dateRequestAccepted",
          "type": "uint256"
        },
        {
          "components": [
            {
              "internalType": "int256",
              "name": "latitude",
              "type": "int256"
            },
            {
              "internalType": "int256",
              "name": "longitude",
              "type": "int256"
            }
          ],
          "internalType": "struct FYP.coordinates",
          "name": "farmerCoordinates",
          "type": "tuple"
        },
        {
          "components": [
            {
              "internalType": "int256",
              "name": "latitude",
              "type": "int256"
            },
            {
              "internalType": "int256",
              "name": "longitude",
              "type": "int256"
            }
          ],
          "internalType": "struct FYP.coordinates",
          "name": "storeCoordinates",
          "type": "tuple"
        },
        {
          "internalType": "int256",
          "name": "cropID",
          "type": "int256"
        },
        {
          "internalType": "int256",
          "name": "cropQuantity",
          "type": "int256"
        },
        {
          "internalType": "int256",
          "name": "cropPrice",
          "type": "int256"
        },
        {
          "internalType": "enum FYP.TransactionStatus",
          "name": "transactionStatus",
          "type": "uint8"
        }
      ],
      "stateMutability": "view",
      "type": "function",
      "constant": true
    },
    {
      "inputs": [],
      "name": "transactions",
      "outputs": [
        {
          "internalType": "int256",
          "name": "",
          "type": "int256"
        }
      ],
      "stateMutability": "view",
      "type": "function",
      "constant": true
    },
    {
      "inputs": [
        {
          "internalType": "uint256",
          "name": "dateRequestPosted",
          "type": "uint256"
        },
        {
          "internalType": "int256",
          "name": "cropID",
          "type": "int256"
        },
        {
          "internalType": "int256",
          "name": "cropQuantity",
          "type": "int256"
        },
        {
          "internalType": "int256",
          "name": "cropPrice",
          "type": "int256"
        },
        {
          "internalType": "int256",
          "name": "storeLatitude",
          "type": "int256"
        },
        {
          "internalType": "int256",
          "name": "storeLongitude",
          "type": "int256"
        }
      ],
      "name": "initTransactionBlockStore",
      "outputs": [],
      "stateMutability": "nonpayable",
      "type": "function"
    },
    {
      "inputs": [
        {
          "internalType": "uint256",
          "name": "dateRequestPosted",
          "type": "uint256"
        },
        {
          "internalType": "int256",
          "name": "cropID",
          "type": "int256"
        },
        {
          "internalType": "int256",
          "name": "cropQuantity",
          "type": "int256"
        },
        {
          "internalType": "int256",
          "name": "cropPrice",
          "type": "int256"
        },
        {
          "internalType": "int256",
          "name": "farmerLatitude",
          "type": "int256"
        },
        {
          "internalType": "int256",
          "name": "farmerLongitude",
          "type": "int256"
        }
      ],
      "name": "initTransactionBlockFarmer",
      "outputs": [],
      "stateMutability": "nonpayable",
      "type": "function"
    },
    {
      "inputs": [
        {
          "internalType": "int256",
          "name": "transactionID",
          "type": "int256"
        },
        {
          "internalType": "int256",
          "name": "farmerLatitude",
          "type": "int256"
        },
        {
          "internalType": "int256",
          "name": "farmerLongitude",
          "type": "int256"
        }
      ],
      "name": "farmerAcceptRequest",
      "outputs": [],
      "stateMutability": "nonpayable",
      "type": "function"
    },
    {
      "inputs": [
        {
          "internalType": "int256",
          "name": "transactionID",
          "type": "int256"
        },
        {
          "internalType": "int256",
          "name": "storeLatitude",
          "type": "int256"
        },
        {
          "internalType": "int256",
          "name": "storeLongitude",
          "type": "int256"
        }
      ],
      "name": "storeAcceptRequest",
      "outputs": [],
      "stateMutability": "nonpayable",
      "type": "function"
    },
    {
      "inputs": [
        {
          "internalType": "int256",
          "name": "transactionID",
          "type": "int256"
        }
      ],
      "name": "completeRequest",
      "outputs": [],
      "stateMutability": "nonpayable",
      "type": "function"
    },
    {
      "inputs": [
        {
          "internalType": "int256",
          "name": "transactionID",
          "type": "int256"
        }
      ],
      "name": "deleteRequest",
      "outputs": [],
      "stateMutability": "nonpayable",
      "type": "function"
    }
  ],
  "bytecode": "0x60806040526000805534801561001457600080fd5b50610f46806100246000396000f3fe608060405234801561001057600080fd5b50600436106100885760003560e01c8063420d47721161005b578063420d4772146100ff5780637ef5aeee1461011b5780638b0b1dfa14610137578063d111e1dc1461017157610088565b8063180151911461008d5780633431517f146100ab57806336ae9df9146100c757806340b1d5f6146100e3575b600080fd5b61009561018d565b6040516100a29190610b0d565b60405180910390f35b6100c560048036038101906100c09190610b8f565b610193565b005b6100e160048036038101906100dc9190610b8f565b6103be565b005b6100fd60048036038101906100f89190610c1c565b6105e9565b005b61011960048036038101906101149190610c1c565b61067f565b005b61013560048036038101906101309190610c49565b610715565b005b610151600480360381019061014c9190610c1c565b610874565b6040516101689b9a99989796959493929190610da1565b60405180910390f35b61018b60048036038101906101869190610c49565b610957565b005b60005481565b6040518061016001604052806000548152602001600073ffffffffffffffffffffffffffffffffffffffff1681526020013373ffffffffffffffffffffffffffffffffffffffff1681526020018781526020014281526020016040518060400160405280600081526020016000815250815260200160405180604001604052808581526020018481525081526020018681526020018581526020018481526020016000600381111561024857610247610d2a565b5b81525060016000805481526020019081526020016000206000820151816000015560208201518160010160006101000a81548173ffffffffffffffffffffffffffffffffffffffff021916908373ffffffffffffffffffffffffffffffffffffffff16021790555060408201518160020160006101000a81548173ffffffffffffffffffffffffffffffffffffffff021916908373ffffffffffffffffffffffffffffffffffffffff160217905550606082015181600301556080820151816004015560a0820151816005016000820151816000015560208201518160010155505060c0820151816007016000820151816000015560208201518160010155505060e0820151816009015561010082015181600a015561012082015181600b015561014082015181600c0160006101000a81548160ff0219169083600381111561039557610394610d2a565b5b021790555090505060016000808282546103af9190610e7c565b92505081905550505050505050565b60405180610160016040528060005481526020013373ffffffffffffffffffffffffffffffffffffffff168152602001600073ffffffffffffffffffffffffffffffffffffffff1681526020018781526020014281526020016040518060400160405280858152602001848152508152602001604051806040016040528060008152602001600081525081526020018681526020018581526020018481526020016000600381111561047357610472610d2a565b5b81525060016000805481526020019081526020016000206000820151816000015560208201518160010160006101000a81548173ffffffffffffffffffffffffffffffffffffffff021916908373ffffffffffffffffffffffffffffffffffffffff16021790555060408201518160020160006101000a81548173ffffffffffffffffffffffffffffffffffffffff021916908373ffffffffffffffffffffffffffffffffffffffff160217905550606082015181600301556080820151816004015560a0820151816005016000820151816000015560208201518160010155505060c0820151816007016000820151816000015560208201518160010155505060e0820151816009015561010082015181600a015561012082015181600b015561014082015181600c0160006101000a81548160ff021916908360038111156105c0576105bf610d2a565b5b021790555090505060016000808282546105da9190610e7c565b92505081905550505050505050565b600260038111156105fd576105fc610d2a565b5b60016000838152602001908152602001600020600c0160009054906101000a900460ff16600381111561063357610632610d2a565b5b0361063d57600080fd5b600360016000838152602001908152602001600020600c0160006101000a81548160ff0219169083600381111561067757610676610d2a565b5b021790555050565b6001600381111561069357610692610d2a565b5b60016000838152602001908152602001600020600c0160009054906101000a900460ff1660038111156106c9576106c8610d2a565b5b146106d357600080fd5b600260016000838152602001908152602001600020600c0160006101000a81548160ff0219169083600381111561070d5761070c610d2a565b5b021790555050565b600073ffffffffffffffffffffffffffffffffffffffff166001600085815260200190815260200160002060010160009054906101000a900473ffffffffffffffffffffffffffffffffffffffff1673ffffffffffffffffffffffffffffffffffffffff161461078457600080fd5b6000600381111561079857610797610d2a565b5b60016000858152602001908152602001600020600c0160009054906101000a900460ff1660038111156107ce576107cd610d2a565b5b146107d857600080fd5b336001600085815260200190815260200160002060010160006101000a81548173ffffffffffffffffffffffffffffffffffffffff021916908373ffffffffffffffffffffffffffffffffffffffff160217905550604051806040016040528083815260200182815250600160008581526020019081526020016000206005016000820151816000015560208201518160010155905050505050565b60016020528060005260406000206000915090508060000154908060010160009054906101000a900473ffffffffffffffffffffffffffffffffffffffff16908060020160009054906101000a900473ffffffffffffffffffffffffffffffffffffffff169080600301549080600401549080600501604051806040016040529081600082015481526020016001820154815250509080600701604051806040016040529081600082015481526020016001820154815250509080600901549080600a01549080600b01549080600c0160009054906101000a900460ff1690508b565b600073ffffffffffffffffffffffffffffffffffffffff166001600085815260200190815260200160002060020160009054906101000a900473ffffffffffffffffffffffffffffffffffffffff1673ffffffffffffffffffffffffffffffffffffffff16146109c657600080fd5b600060038111156109da576109d9610d2a565b5b60016000858152602001908152602001600020600c0160009054906101000a900460ff166003811115610a1057610a0f610d2a565b5b14610a1a57600080fd5b336001600085815260200190815260200160002060020160006101000a81548173ffffffffffffffffffffffffffffffffffffffff021916908373ffffffffffffffffffffffffffffffffffffffff1602179055506040518060400160405280838152602001828152506001600085815260200190815260200160002060070160008201518160000155602082015181600101559050506001806000858152602001908152602001600020600c0160006101000a81548160ff02191690836003811115610aea57610ae9610d2a565b5b0217905550505050565b6000819050919050565b610b0781610af4565b82525050565b6000602082019050610b226000830184610afe565b92915050565b600080fd5b6000819050919050565b610b4081610b2d565b8114610b4b57600080fd5b50565b600081359050610b5d81610b37565b92915050565b610b6c81610af4565b8114610b7757600080fd5b50565b600081359050610b8981610b63565b92915050565b60008060008060008060c08789031215610bac57610bab610b28565b5b6000610bba89828a01610b4e565b9650506020610bcb89828a01610b7a565b9550506040610bdc89828a01610b7a565b9450506060610bed89828a01610b7a565b9350506080610bfe89828a01610b7a565b92505060a0610c0f89828a01610b7a565b9150509295509295509295565b600060208284031215610c3257610c31610b28565b5b6000610c4084828501610b7a565b91505092915050565b600080600060608486031215610c6257610c61610b28565b5b6000610c7086828701610b7a565b9350506020610c8186828701610b7a565b9250506040610c9286828701610b7a565b9150509250925092565b600073ffffffffffffffffffffffffffffffffffffffff82169050919050565b6000610cc782610c9c565b9050919050565b610cd781610cbc565b82525050565b610ce681610b2d565b82525050565b610cf581610af4565b82525050565b604082016000820151610d116000850182610cec565b506020820151610d246020850182610cec565b50505050565b7f4e487b7100000000000000000000000000000000000000000000000000000000600052602160045260246000fd5b60048110610d6a57610d69610d2a565b5b50565b6000819050610d7b82610d59565b919050565b6000610d8b82610d6d565b9050919050565b610d9b81610d80565b82525050565b60006101a082019050610db7600083018e610afe565b610dc4602083018d610cce565b610dd1604083018c610cce565b610dde606083018b610cdd565b610deb608083018a610cdd565b610df860a0830189610cfb565b610e0560e0830188610cfb565b610e13610120830187610afe565b610e21610140830186610afe565b610e2f610160830185610afe565b610e3d610180830184610d92565b9c9b505050505050505050505050565b7f4e487b7100000000000000000000000000000000000000000000000000000000600052601160045260246000fd5b6000610e8782610af4565b9150610e9283610af4565b9250817f7fffffffffffffffffffffffffffffffffffffffffffffffffffffffffffffff03831360008312151615610ecd57610ecc610e4d565b5b817f8000000000000000000000000000000000000000000000000000000000000000038312600083121615610f0557610f04610e4d565b5b82820190509291505056fea2646970667358221220040856ff02b92271bf290115b1b7e4af32f6ff21c5b4f802b0134ed8d48dcf5f64736f6c634300080e0033",
  "immutableReferences": {},
  "source": "//SPDX-License-Identifier: UNLICENSED\r\npragma solidity ^0.8.0;\r\n\r\ncontract FYP {\r\n    int256 public transactions = 0;\r\n    mapping(int256 => Transaction) public TransactionLedger;\r\n\r\n    enum TransactionStatus {\r\n        Requested,\r\n        Accepted,\r\n        Completed,\r\n        Cancelled\r\n    }\r\n\r\n    struct coordinates {\r\n        int256 latitude;\r\n        int256 longitude;\r\n    }\r\n\r\n    struct Transaction {\r\n        int256 transactionID;\r\n        address farmerAddress;\r\n        address storeAddress;\r\n        uint256 dateRequestPosted;\r\n        uint256 dateRequestAccepted;\r\n        coordinates farmerCoordinates;\r\n        coordinates storeCoordinates;\r\n        int256 cropID;\r\n        int256 cropQuantity;\r\n        int256 cropPrice;\r\n        TransactionStatus transactionStatus;\r\n    }\r\n\r\n    function initTransactionBlockStore(\r\n        uint256 dateRequestPosted,\r\n        int256 cropID,\r\n        int256 cropQuantity,\r\n        int256 cropPrice,\r\n        int256 storeLatitude,\r\n        int256 storeLongitude\r\n    ) public {\r\n        TransactionLedger[transactions] = Transaction({\r\n            transactionID: transactions,\r\n            farmerAddress: 0x0000000000000000000000000000000000000000,\r\n            storeAddress: msg.sender,\r\n            dateRequestPosted: dateRequestPosted,\r\n            dateRequestAccepted: block.timestamp,\r\n            farmerCoordinates: coordinates({latitude: 0, longitude: 0}),\r\n            storeCoordinates: coordinates({\r\n                latitude: storeLatitude,\r\n                longitude: storeLongitude\r\n            }),\r\n            cropID: cropID,\r\n            cropQuantity: cropQuantity,\r\n            cropPrice: cropPrice,\r\n            transactionStatus: TransactionStatus.Requested\r\n        });\r\n        transactions += 1;\r\n    }\r\n\r\n    function initTransactionBlockFarmer(\r\n        uint256 dateRequestPosted,\r\n        int256 cropID,\r\n        int256 cropQuantity,\r\n        int256 cropPrice,\r\n        int256 farmerLatitude,\r\n        int256 farmerLongitude\r\n    ) public {\r\n        TransactionLedger[transactions] = Transaction({\r\n            transactionID: transactions,\r\n            farmerAddress: msg.sender,\r\n            storeAddress: 0x0000000000000000000000000000000000000000,\r\n            dateRequestPosted: dateRequestPosted,\r\n            dateRequestAccepted: block.timestamp,\r\n            farmerCoordinates: coordinates({\r\n                latitude: farmerLatitude,\r\n                longitude: farmerLongitude\r\n            }),\r\n            storeCoordinates: coordinates({latitude: 0, longitude: 0}),\r\n            cropID: cropID,\r\n            cropQuantity: cropQuantity,\r\n            cropPrice: cropPrice,\r\n            transactionStatus: TransactionStatus.Requested\r\n        });\r\n        transactions += 1;\r\n    }\r\n\r\n    function farmerAcceptRequest(\r\n        int256 transactionID,\r\n        int256 farmerLatitude,\r\n        int256 farmerLongitude\r\n    ) public {\r\n        require(\r\n            TransactionLedger[transactionID].farmerAddress ==\r\n                0x0000000000000000000000000000000000000000\r\n        );\r\n        require(\r\n            TransactionLedger[transactionID].transactionStatus ==\r\n                TransactionStatus.Requested\r\n        );\r\n        TransactionLedger[transactionID].farmerAddress = msg.sender;\r\n        TransactionLedger[transactionID].farmerCoordinates = coordinates({\r\n            latitude: farmerLatitude,\r\n            longitude: farmerLongitude\r\n        });\r\n    }\r\n\r\n    function storeAcceptRequest(\r\n        int256 transactionID,\r\n        int256 storeLatitude,\r\n        int256 storeLongitude\r\n    ) public {\r\n        require(\r\n            TransactionLedger[transactionID].storeAddress ==\r\n                0x0000000000000000000000000000000000000000\r\n        );\r\n        require(\r\n            TransactionLedger[transactionID].transactionStatus ==\r\n                TransactionStatus.Requested\r\n        );\r\n        TransactionLedger[transactionID].storeAddress = msg.sender;\r\n        TransactionLedger[transactionID].storeCoordinates = coordinates({\r\n            latitude: storeLatitude,\r\n            longitude: storeLongitude\r\n        });\r\n        TransactionLedger[transactionID].transactionStatus = TransactionStatus\r\n            .Accepted;\r\n    }\r\n\r\n    function completeRequest(int256 transactionID) public {\r\n        require(\r\n            TransactionLedger[transactionID].transactionStatus ==\r\n                TransactionStatus.Accepted\r\n        );\r\n        TransactionLedger[transactionID].transactionStatus = TransactionStatus\r\n            .Completed;\r\n    }\r\n\r\n    function deleteRequest(int256 transactionID) public {\r\n        require(\r\n            TransactionLedger[transactionID].transactionStatus !=\r\n                TransactionStatus.Completed \r\n        );\r\n        TransactionLedger[transactionID].transactionStatus = TransactionStatus\r\n            .Cancelled;\r\n    }\r\n}\r\n",
  "sourcePath": "D:\\Code Files\\Final Year\\FYP-backend\\Contracts\\contracts\\FYP.sol",
  "compiler": {
    "name": "solc",
    "version": "0.8.14+commit.80d49f37.Emscripten.clang"
  },
  "schemaVersion": "3.4.7",
  "updatedAt": "2022-11-29T11:13:09.773Z",
  "networkType": "ethereum",
  "devdoc": {
    "kind": "dev",
    "methods": {},
    "version": 1
  },
  "userdoc": {
    "kind": "user",
    "methods": {},
    "version": 1
  }
}