{
  "contractName": "FYP",
  "abi": [
    {
      "inputs": [
        {
          "internalType": "int256",
          "name": "",
          "type": "int256"
        }
      ],
      "name": "TransactionLedger",
      "outputs": [
        {
          "internalType": "int256",
          "name": "transactionID",
          "type": "int256"
        },
        {
          "internalType": "address",
          "name": "farmerAddress",
          "type": "address"
        },
        {
          "internalType": "address",
          "name": "storeAddress",
          "type": "address"
        },
        {
          "internalType": "uint256",
          "name": "dateRequestPosted",
          "type": "uint256"
        },
        {
          "internalType": "uint256",
          "name": "dateRequestAccepted",
          "type": "uint256"
        },
        {
          "components": [
            {
              "internalType": "int256",
              "name": "latitude",
              "type": "int256"
            },
            {
              "internalType": "int256",
              "name": "longitude",
              "type": "int256"
            }
          ],
          "internalType": "struct FYP.coordinates",
          "name": "farmerCoordinates",
          "type": "tuple"
        },
        {
          "components": [
            {
              "internalType": "int256",
              "name": "latitude",
              "type": "int256"
            },
            {
              "internalType": "int256",
              "name": "longitude",
              "type": "int256"
            }
          ],
          "internalType": "struct FYP.coordinates",
          "name": "storeCoordinates",
          "type": "tuple"
        },
        {
          "internalType": "int256",
          "name": "cropID",
          "type": "int256"
        },
        {
          "internalType": "int256",
          "name": "cropQuantity",
          "type": "int256"
        },
        {
          "internalType": "int256",
          "name": "cropPrice",
          "type": "int256"
        },
        {
          "internalType": "enum FYP.TransactionStatus",
          "name": "transactionStatus",
          "type": "uint8"
        }
      ],
      "stateMutability": "view",
      "type": "function"
    },
    {
      "inputs": [],
      "name": "transactions",
      "outputs": [
        {
          "internalType": "int256",
          "name": "",
          "type": "int256"
        }
      ],
      "stateMutability": "view",
      "type": "function"
    },
    {
      "inputs": [
        {
          "internalType": "uint256",
          "name": "dateRequestPosted",
          "type": "uint256"
        },
        {
          "internalType": "int256",
          "name": "cropID",
          "type": "int256"
        },
        {
          "internalType": "int256",
          "name": "cropQuantity",
          "type": "int256"
        },
        {
          "internalType": "int256",
          "name": "cropPrice",
          "type": "int256"
        },
        {
          "internalType": "int256",
          "name": "storeLatitude",
          "type": "int256"
        },
        {
          "internalType": "int256",
          "name": "storeLongitude",
          "type": "int256"
        }
      ],
      "name": "initTransactionBlockStore",
      "outputs": [
        {
          "internalType": "int256",
          "name": "",
          "type": "int256"
        }
      ],
      "stateMutability": "nonpayable",
      "type": "function"
    },
    {
      "inputs": [
        {
          "internalType": "uint256",
          "name": "dateRequestPosted",
          "type": "uint256"
        },
        {
          "internalType": "int256",
          "name": "cropID",
          "type": "int256"
        },
        {
          "internalType": "int256",
          "name": "cropQuantity",
          "type": "int256"
        },
        {
          "internalType": "int256",
          "name": "cropPrice",
          "type": "int256"
        },
        {
          "internalType": "int256",
          "name": "farmerLatitude",
          "type": "int256"
        },
        {
          "internalType": "int256",
          "name": "farmerLongitude",
          "type": "int256"
        }
      ],
      "name": "initTransactionBlockFarmer",
      "outputs": [
        {
          "internalType": "int256",
          "name": "",
          "type": "int256"
        }
      ],
      "stateMutability": "nonpayable",
      "type": "function"
    },
    {
      "inputs": [
        {
          "internalType": "int256",
          "name": "transactionID",
          "type": "int256"
        },
        {
          "internalType": "int256",
          "name": "farmerLatitude",
          "type": "int256"
        },
        {
          "internalType": "int256",
          "name": "farmerLongitude",
          "type": "int256"
        }
      ],
      "name": "farmerAcceptRequest",
      "outputs": [],
      "stateMutability": "nonpayable",
      "type": "function"
    },
    {
      "inputs": [
        {
          "internalType": "int256",
          "name": "transactionID",
          "type": "int256"
        },
        {
          "internalType": "int256",
          "name": "storeLatitude",
          "type": "int256"
        },
        {
          "internalType": "int256",
          "name": "storeLongitude",
          "type": "int256"
        }
      ],
      "name": "storeAcceptRequest",
      "outputs": [],
      "stateMutability": "nonpayable",
      "type": "function"
    },
    {
      "inputs": [
        {
          "internalType": "int256",
          "name": "transactionID",
          "type": "int256"
        }
      ],
      "name": "completeRequest",
      "outputs": [],
      "stateMutability": "nonpayable",
      "type": "function"
    },
    {
      "inputs": [
        {
          "internalType": "int256",
          "name": "transactionID",
          "type": "int256"
        }
      ],
      "name": "deleteRequest",
      "outputs": [],
      "stateMutability": "nonpayable",
      "type": "function"
    }
  ],
  "bytecode": "0x60806040526000805534801561001457600080fd5b50610f80806100246000396000f3fe608060405234801561001057600080fd5b50600436106100885760003560e01c8063420d47721161005b578063420d4772146101275780637ef5aeee146101435780638b0b1dfa1461015f578063d111e1dc1461019957610088565b8063180151911461008d5780633431517f146100ab57806336ae9df9146100db57806340b1d5f61461010b575b600080fd5b6100956101b5565b6040516100a29190610b47565b60405180910390f35b6100c560048036038101906100c09190610bc9565b6101bb565b6040516100d29190610b47565b60405180910390f35b6100f560048036038101906100f09190610bc9565b6103ef565b6040516101029190610b47565b60405180910390f35b61012560048036038101906101209190610c56565b610623565b005b610141600480360381019061013c9190610c56565b6106b9565b005b61015d60048036038101906101589190610c83565b61074f565b005b61017960048036038101906101749190610c56565b6108ae565b6040516101909b9a99989796959493929190610ddb565b60405180910390f35b6101b360048036038101906101ae9190610c83565b610991565b005b60005481565b60006040518061016001604052806000548152602001600073ffffffffffffffffffffffffffffffffffffffff1681526020013373ffffffffffffffffffffffffffffffffffffffff1681526020018881526020014281526020016040518060400160405280600081526020016000815250815260200160405180604001604052808681526020018581525081526020018781526020018681526020018581526020016000600381111561027257610271610d64565b5b81525060016000805481526020019081526020016000206000820151816000015560208201518160010160006101000a81548173ffffffffffffffffffffffffffffffffffffffff021916908373ffffffffffffffffffffffffffffffffffffffff16021790555060408201518160020160006101000a81548173ffffffffffffffffffffffffffffffffffffffff021916908373ffffffffffffffffffffffffffffffffffffffff160217905550606082015181600301556080820151816004015560a0820151816005016000820151816000015560208201518160010155505060c0820151816007016000820151816000015560208201518160010155505060e0820151816009015561010082015181600a015561012082015181600b015561014082015181600c0160006101000a81548160ff021916908360038111156103bf576103be610d64565b5b021790555090505060016000808282546103d99190610eb6565b9250508190555060005490509695505050505050565b600060405180610160016040528060005481526020013373ffffffffffffffffffffffffffffffffffffffff168152602001600073ffffffffffffffffffffffffffffffffffffffff168152602001888152602001428152602001604051806040016040528086815260200185815250815260200160405180604001604052806000815260200160008152508152602001878152602001868152602001858152602001600060038111156104a6576104a5610d64565b5b81525060016000805481526020019081526020016000206000820151816000015560208201518160010160006101000a81548173ffffffffffffffffffffffffffffffffffffffff021916908373ffffffffffffffffffffffffffffffffffffffff16021790555060408201518160020160006101000a81548173ffffffffffffffffffffffffffffffffffffffff021916908373ffffffffffffffffffffffffffffffffffffffff160217905550606082015181600301556080820151816004015560a0820151816005016000820151816000015560208201518160010155505060c0820151816007016000820151816000015560208201518160010155505060e0820151816009015561010082015181600a015561012082015181600b015561014082015181600c0160006101000a81548160ff021916908360038111156105f3576105f2610d64565b5b0217905550905050600160008082825461060d9190610eb6565b9250508190555060005490509695505050505050565b6002600381111561063757610636610d64565b5b60016000838152602001908152602001600020600c0160009054906101000a900460ff16600381111561066d5761066c610d64565b5b0361067757600080fd5b600360016000838152602001908152602001600020600c0160006101000a81548160ff021916908360038111156106b1576106b0610d64565b5b021790555050565b600160038111156106cd576106cc610d64565b5b60016000838152602001908152602001600020600c0160009054906101000a900460ff16600381111561070357610702610d64565b5b1461070d57600080fd5b600260016000838152602001908152602001600020600c0160006101000a81548160ff0219169083600381111561074757610746610d64565b5b021790555050565b600073ffffffffffffffffffffffffffffffffffffffff166001600085815260200190815260200160002060010160009054906101000a900473ffffffffffffffffffffffffffffffffffffffff1673ffffffffffffffffffffffffffffffffffffffff16146107be57600080fd5b600060038111156107d2576107d1610d64565b5b60016000858152602001908152602001600020600c0160009054906101000a900460ff16600381111561080857610807610d64565b5b1461081257600080fd5b336001600085815260200190815260200160002060010160006101000a81548173ffffffffffffffffffffffffffffffffffffffff021916908373ffffffffffffffffffffffffffffffffffffffff160217905550604051806040016040528083815260200182815250600160008581526020019081526020016000206005016000820151816000015560208201518160010155905050505050565b60016020528060005260406000206000915090508060000154908060010160009054906101000a900473ffffffffffffffffffffffffffffffffffffffff16908060020160009054906101000a900473ffffffffffffffffffffffffffffffffffffffff169080600301549080600401549080600501604051806040016040529081600082015481526020016001820154815250509080600701604051806040016040529081600082015481526020016001820154815250509080600901549080600a01549080600b01549080600c0160009054906101000a900460ff1690508b565b600073ffffffffffffffffffffffffffffffffffffffff166001600085815260200190815260200160002060020160009054906101000a900473ffffffffffffffffffffffffffffffffffffffff1673ffffffffffffffffffffffffffffffffffffffff1614610a0057600080fd5b60006003811115610a1457610a13610d64565b5b60016000858152602001908152602001600020600c0160009054906101000a900460ff166003811115610a4a57610a49610d64565b5b14610a5457600080fd5b336001600085815260200190815260200160002060020160006101000a81548173ffffffffffffffffffffffffffffffffffffffff021916908373ffffffffffffffffffffffffffffffffffffffff1602179055506040518060400160405280838152602001828152506001600085815260200190815260200160002060070160008201518160000155602082015181600101559050506001806000858152602001908152602001600020600c0160006101000a81548160ff02191690836003811115610b2457610b23610d64565b5b0217905550505050565b6000819050919050565b610b4181610b2e565b82525050565b6000602082019050610b5c6000830184610b38565b92915050565b600080fd5b6000819050919050565b610b7a81610b67565b8114610b8557600080fd5b50565b600081359050610b9781610b71565b92915050565b610ba681610b2e565b8114610bb157600080fd5b50565b600081359050610bc381610b9d565b92915050565b60008060008060008060c08789031215610be657610be5610b62565b5b6000610bf489828a01610b88565b9650506020610c0589828a01610bb4565b9550506040610c1689828a01610bb4565b9450506060610c2789828a01610bb4565b9350506080610c3889828a01610bb4565b92505060a0610c4989828a01610bb4565b9150509295509295509295565b600060208284031215610c6c57610c6b610b62565b5b6000610c7a84828501610bb4565b91505092915050565b600080600060608486031215610c9c57610c9b610b62565b5b6000610caa86828701610bb4565b9350506020610cbb86828701610bb4565b9250506040610ccc86828701610bb4565b9150509250925092565b600073ffffffffffffffffffffffffffffffffffffffff82169050919050565b6000610d0182610cd6565b9050919050565b610d1181610cf6565b82525050565b610d2081610b67565b82525050565b610d2f81610b2e565b82525050565b604082016000820151610d4b6000850182610d26565b506020820151610d5e6020850182610d26565b50505050565b7f4e487b7100000000000000000000000000000000000000000000000000000000600052602160045260246000fd5b60048110610da457610da3610d64565b5b50565b6000819050610db582610d93565b919050565b6000610dc582610da7565b9050919050565b610dd581610dba565b82525050565b60006101a082019050610df1600083018e610b38565b610dfe602083018d610d08565b610e0b604083018c610d08565b610e18606083018b610d17565b610e25608083018a610d17565b610e3260a0830189610d35565b610e3f60e0830188610d35565b610e4d610120830187610b38565b610e5b610140830186610b38565b610e69610160830185610b38565b610e77610180830184610dcc565b9c9b505050505050505050505050565b7f4e487b7100000000000000000000000000000000000000000000000000000000600052601160045260246000fd5b6000610ec182610b2e565b9150610ecc83610b2e565b9250817f7fffffffffffffffffffffffffffffffffffffffffffffffffffffffffffffff03831360008312151615610f0757610f06610e87565b5b817f8000000000000000000000000000000000000000000000000000000000000000038312600083121615610f3f57610f3e610e87565b5b82820190509291505056fea2646970667358221220f74941c5373f4f0f255aa6f1e9b82a1e0372fa9f710efe58e3fcb94641b4c67864736f6c634300080e0033",
  "immutableReferences": {},
  "source": "//SPDX-License-Identifier: UNLICENSED\r\npragma solidity ^0.8.0;\r\n\r\ncontract FYP {\r\n    int256 public transactions = 0;\r\n    mapping(int256 => Transaction) public TransactionLedger;\r\n\r\n    enum TransactionStatus {\r\n        Requested,\r\n        Accepted,\r\n        Completed,\r\n        Cancelled\r\n    }\r\n\r\n    struct coordinates {\r\n        int256 latitude;\r\n        int256 longitude;\r\n    }\r\n\r\n    struct Transaction {\r\n        int256 transactionID;\r\n        address farmerAddress;\r\n        address storeAddress;\r\n        uint256 dateRequestPosted;\r\n        uint256 dateRequestAccepted;\r\n        coordinates farmerCoordinates;\r\n        coordinates storeCoordinates;\r\n        int256 cropID;\r\n        int256 cropQuantity;\r\n        int256 cropPrice;\r\n        TransactionStatus transactionStatus;\r\n    }\r\n\r\n    function initTransactionBlockStore(\r\n        uint256 dateRequestPosted,\r\n        int256 cropID,\r\n        int256 cropQuantity,\r\n        int256 cropPrice,\r\n        int256 storeLatitude,\r\n        int256 storeLongitude\r\n    ) public returns(int256) {\r\n        TransactionLedger[transactions] = Transaction({\r\n            transactionID: transactions,\r\n            farmerAddress: 0x0000000000000000000000000000000000000000,\r\n            storeAddress: msg.sender,\r\n            dateRequestPosted: dateRequestPosted,\r\n            dateRequestAccepted: block.timestamp,\r\n            farmerCoordinates: coordinates({latitude: 0, longitude: 0}),\r\n            storeCoordinates: coordinates({\r\n                latitude: storeLatitude,\r\n                longitude: storeLongitude\r\n            }),\r\n            cropID: cropID,\r\n            cropQuantity: cropQuantity,\r\n            cropPrice: cropPrice,\r\n            transactionStatus: TransactionStatus.Requested\r\n        });\r\n        transactions += 1;\r\n        return transactions;\r\n    }\r\n\r\n    function initTransactionBlockFarmer(\r\n        uint256 dateRequestPosted,\r\n        int256 cropID,\r\n        int256 cropQuantity,\r\n        int256 cropPrice,\r\n        int256 farmerLatitude,\r\n        int256 farmerLongitude\r\n    ) public returns(int256){\r\n        TransactionLedger[transactions] = Transaction({\r\n            transactionID: transactions,\r\n            farmerAddress: msg.sender,\r\n            storeAddress: 0x0000000000000000000000000000000000000000,\r\n            dateRequestPosted: dateRequestPosted,\r\n            dateRequestAccepted: block.timestamp,\r\n            farmerCoordinates: coordinates({\r\n                latitude: farmerLatitude,\r\n                longitude: farmerLongitude\r\n            }),\r\n            storeCoordinates: coordinates({latitude: 0, longitude: 0}),\r\n            cropID: cropID,\r\n            cropQuantity: cropQuantity,\r\n            cropPrice: cropPrice,\r\n            transactionStatus: TransactionStatus.Requested\r\n        });\r\n        transactions += 1;\r\n        return transactions;\r\n    }\r\n\r\n    function farmerAcceptRequest(\r\n        int256 transactionID,\r\n        int256 farmerLatitude,\r\n        int256 farmerLongitude\r\n    ) public {\r\n        require(\r\n            TransactionLedger[transactionID].farmerAddress ==\r\n                0x0000000000000000000000000000000000000000\r\n        );\r\n        require(\r\n            TransactionLedger[transactionID].transactionStatus ==\r\n                TransactionStatus.Requested\r\n        );\r\n        TransactionLedger[transactionID].farmerAddress = msg.sender;\r\n        TransactionLedger[transactionID].farmerCoordinates = coordinates({\r\n            latitude: farmerLatitude,\r\n            longitude: farmerLongitude\r\n        });\r\n    }\r\n\r\n    function storeAcceptRequest(\r\n        int256 transactionID,\r\n        int256 storeLatitude,\r\n        int256 storeLongitude\r\n    ) public {\r\n        require(\r\n            TransactionLedger[transactionID].storeAddress ==\r\n                0x0000000000000000000000000000000000000000\r\n        );\r\n        require(\r\n            TransactionLedger[transactionID].transactionStatus ==\r\n                TransactionStatus.Requested\r\n        );\r\n        TransactionLedger[transactionID].storeAddress = msg.sender;\r\n        TransactionLedger[transactionID].storeCoordinates = coordinates({\r\n            latitude: storeLatitude,\r\n            longitude: storeLongitude\r\n        });\r\n        TransactionLedger[transactionID].transactionStatus = TransactionStatus\r\n            .Accepted;\r\n    }\r\n\r\n    function completeRequest(int256 transactionID) public {\r\n        require(\r\n            TransactionLedger[transactionID].transactionStatus ==\r\n                TransactionStatus.Accepted\r\n        );\r\n        TransactionLedger[transactionID].transactionStatus = TransactionStatus\r\n            .Completed;\r\n    }\r\n\r\n    function deleteRequest(int256 transactionID) public {\r\n        require(\r\n            TransactionLedger[transactionID].transactionStatus !=\r\n                TransactionStatus.Completed \r\n        );\r\n        TransactionLedger[transactionID].transactionStatus = TransactionStatus\r\n            .Cancelled;\r\n    }\r\n}\r\n",
  "sourcePath": "D:\\Code Files\\Final Year\\FYP-backend\\Contracts\\contracts\\FYP.sol",
  "compiler": {
    "name": "solc",
    "version": "0.8.14+commit.80d49f37.Emscripten.clang"
  },
  "schemaVersion": "3.4.7",
  "updatedAt": "2022-11-30T06:19:31.099Z",
  "devdoc": {
    "kind": "dev",
    "methods": {},
    "version": 1
  },
  "userdoc": {
    "kind": "user",
    "methods": {},
    "version": 1
  }
}