{
  "contractName": "FYP",
  "abi": [
    {
      "inputs": [
        {
          "internalType": "int256",
          "name": "",
          "type": "int256"
        }
      ],
      "name": "TransactionLedger",
      "outputs": [
        {
          "internalType": "int256",
          "name": "transactionID",
          "type": "int256"
        },
        {
          "internalType": "address",
          "name": "farmerAddress",
          "type": "address"
        },
        {
          "internalType": "address",
          "name": "storeAddress",
          "type": "address"
        },
        {
          "internalType": "uint256",
          "name": "dateRequestPosted",
          "type": "uint256"
        },
        {
          "internalType": "uint256",
          "name": "dateRequestAccepted",
          "type": "uint256"
        },
        {
          "internalType": "int256",
          "name": "cropID",
          "type": "int256"
        },
        {
          "internalType": "int256",
          "name": "cropQuantity",
          "type": "int256"
        },
        {
          "internalType": "int256",
          "name": "cropPrice",
          "type": "int256"
        },
        {
          "internalType": "enum FYP.TransactionStatus",
          "name": "transactionStatus",
          "type": "uint8"
        }
      ],
      "stateMutability": "view",
      "type": "function",
      "constant": true
    },
    {
      "inputs": [],
      "name": "transactions",
      "outputs": [
        {
          "internalType": "int256",
          "name": "",
          "type": "int256"
        }
      ],
      "stateMutability": "view",
      "type": "function",
      "constant": true
    },
    {
      "inputs": [
        {
          "internalType": "uint256",
          "name": "dateRequestPosted",
          "type": "uint256"
        },
        {
          "internalType": "int256",
          "name": "cropID",
          "type": "int256"
        },
        {
          "internalType": "int256",
          "name": "cropQuantity",
          "type": "int256"
        },
        {
          "internalType": "int256",
          "name": "cropPrice",
          "type": "int256"
        },
        {
          "internalType": "bool",
          "name": "initByFarmer",
          "type": "bool"
        }
      ],
      "name": "initTransactionBlock",
      "outputs": [
        {
          "internalType": "int256",
          "name": "",
          "type": "int256"
        }
      ],
      "stateMutability": "nonpayable",
      "type": "function"
    },
    {
      "inputs": [
        {
          "internalType": "int256",
          "name": "transactionID",
          "type": "int256"
        },
        {
          "internalType": "bool",
          "name": "initByFarmer",
          "type": "bool"
        }
      ],
      "name": "acceptRequest",
      "outputs": [],
      "stateMutability": "nonpayable",
      "type": "function"
    },
    {
      "inputs": [
        {
          "internalType": "int256",
          "name": "transactionID",
          "type": "int256"
        }
      ],
      "name": "completeRequest",
      "outputs": [],
      "stateMutability": "nonpayable",
      "type": "function"
    },
    {
      "inputs": [
        {
          "internalType": "int256",
          "name": "transactionID",
          "type": "int256"
        }
      ],
      "name": "deleteRequest",
      "outputs": [],
      "stateMutability": "nonpayable",
      "type": "function"
    }
  ],
  "bytecode": "0x60806040526000805534801561001457600080fd5b50610a39806100246000396000f3fe608060405234801561001057600080fd5b50600436106100625760003560e01c806318015191146100675780631c86dd671461008557806340b1d5f6146100a1578063420d4772146100bd5780634b2b862a146100d95780638b0b1dfa14610109575b600080fd5b61006f610141565b60405161007c919061064a565b60405180910390f35b61009f600480360381019061009a91906106ce565b610147565b005b6100bb60048036038101906100b6919061070e565b610293565b005b6100d760048036038101906100d2919061070e565b610329565b005b6100f360048036038101906100ee9190610771565b6103bf565b604051610100919061064a565b60405180910390f35b610123600480360381019061011e919061070e565b610596565b604051610138999897969594939291906108b3565b60405180910390f35b60005481565b6000600381111561015b5761015a61083c565b5b6001600084815260200190815260200160002060080160009054906101000a900460ff1660038111156101915761019061083c565b5b1461019b57600080fd5b80156101fb57336001600084815260200190815260200160002060010160006101000a81548173ffffffffffffffffffffffffffffffffffffffff021916908373ffffffffffffffffffffffffffffffffffffffff160217905550610251565b336001600084815260200190815260200160002060020160006101000a81548173ffffffffffffffffffffffffffffffffffffffff021916908373ffffffffffffffffffffffffffffffffffffffff1602179055505b600180600084815260200190815260200160002060080160006101000a81548160ff0219169083600381111561028a5761028961083c565b5b02179055505050565b600260038111156102a7576102a661083c565b5b6001600083815260200190815260200160002060080160009054906101000a900460ff1660038111156102dd576102dc61083c565b5b036102e757600080fd5b60036001600083815260200190815260200160002060080160006101000a81548160ff021916908360038111156103215761032061083c565b5b021790555050565b6001600381111561033d5761033c61083c565b5b6001600083815260200190815260200160002060080160009054906101000a900460ff1660038111156103735761037261083c565b5b1461037d57600080fd5b60026001600083815260200190815260200160002060080160006101000a81548160ff021916908360038111156103b7576103b661083c565b5b021790555050565b60008060009050600083156103d6573391506103da565b3390505b60405180610120016040528060005481526020018373ffffffffffffffffffffffffffffffffffffffff1681526020018273ffffffffffffffffffffffffffffffffffffffff168152602001898152602001428152602001888152602001878152602001868152602001600060038111156104585761045761083c565b5b81525060016000805481526020019081526020016000206000820151816000015560208201518160010160006101000a81548173ffffffffffffffffffffffffffffffffffffffff021916908373ffffffffffffffffffffffffffffffffffffffff16021790555060408201518160020160006101000a81548173ffffffffffffffffffffffffffffffffffffffff021916908373ffffffffffffffffffffffffffffffffffffffff160217905550606082015181600301556080820151816004015560a0820151816005015560c0820151816006015560e082015181600701556101008201518160080160006101000a81548160ff021916908360038111156105655761056461083c565b5b0217905550905050600160008082825461057f919061096f565b925050819055506000549250505095945050505050565b60016020528060005260406000206000915090508060000154908060010160009054906101000a900473ffffffffffffffffffffffffffffffffffffffff16908060020160009054906101000a900473ffffffffffffffffffffffffffffffffffffffff16908060030154908060040154908060050154908060060154908060070154908060080160009054906101000a900460ff16905089565b6000819050919050565b61064481610631565b82525050565b600060208201905061065f600083018461063b565b92915050565b600080fd5b61067381610631565b811461067e57600080fd5b50565b6000813590506106908161066a565b92915050565b60008115159050919050565b6106ab81610696565b81146106b657600080fd5b50565b6000813590506106c8816106a2565b92915050565b600080604083850312156106e5576106e4610665565b5b60006106f385828601610681565b9250506020610704858286016106b9565b9150509250929050565b60006020828403121561072457610723610665565b5b600061073284828501610681565b91505092915050565b6000819050919050565b61074e8161073b565b811461075957600080fd5b50565b60008135905061076b81610745565b92915050565b600080600080600060a0868803121561078d5761078c610665565b5b600061079b8882890161075c565b95505060206107ac88828901610681565b94505060406107bd88828901610681565b93505060606107ce88828901610681565b92505060806107df888289016106b9565b9150509295509295909350565b600073ffffffffffffffffffffffffffffffffffffffff82169050919050565b6000610817826107ec565b9050919050565b6108278161080c565b82525050565b6108368161073b565b82525050565b7f4e487b7100000000000000000000000000000000000000000000000000000000600052602160045260246000fd5b6004811061087c5761087b61083c565b5b50565b600081905061088d8261086b565b919050565b600061089d8261087f565b9050919050565b6108ad81610892565b82525050565b6000610120820190506108c9600083018c61063b565b6108d6602083018b61081e565b6108e3604083018a61081e565b6108f0606083018961082d565b6108fd608083018861082d565b61090a60a083018761063b565b61091760c083018661063b565b61092460e083018561063b565b6109326101008301846108a4565b9a9950505050505050505050565b7f4e487b7100000000000000000000000000000000000000000000000000000000600052601160045260246000fd5b600061097a82610631565b915061098583610631565b9250817f7fffffffffffffffffffffffffffffffffffffffffffffffffffffffffffffff038313600083121516156109c0576109bf610940565b5b817f80000000000000000000000000000000000000000000000000000000000000000383126000831216156109f8576109f7610940565b5b82820190509291505056fea2646970667358221220455236b92e4c47453f516dff9adb9152bb46494c99f4c02111a5b914f548a82464736f6c634300080e0033",
  "immutableReferences": {},
  "source": "//SPDX-License-Identifier: UNLICENSED\r\npragma solidity ^0.8.0;\r\n\r\ncontract FYP {\r\n    int256 public transactions = 0;\r\n    mapping(int256 => Transaction) public TransactionLedger;\r\n\r\n    enum TransactionStatus {\r\n        Requested,\r\n        Accepted,\r\n        Completed,\r\n        Cancelled\r\n    }\r\n\r\n    enum Initiator {\r\n        Farmer,\r\n        Store\r\n    }\r\n    \r\n    struct Transaction {\r\n        int256 transactionID;\r\n        address farmerAddress;\r\n        address storeAddress;\r\n        uint256 dateRequestPosted;\r\n        uint256 dateRequestAccepted;\r\n        int256 cropID;\r\n        int256 cropQuantity;\r\n        int256 cropPrice;\r\n        TransactionStatus transactionStatus;\r\n    }\r\n\r\n    function initTransactionBlock(\r\n        uint256 dateRequestPosted,\r\n        int256 cropID,\r\n        int256 cropQuantity,\r\n        int256 cropPrice,\r\n        bool initByFarmer\r\n    ) public returns (int256) {\r\n        address farmerAddress = 0x0000000000000000000000000000000000000000;\r\n        address storeAddress = 0x0000000000000000000000000000000000000000;\r\n        if (initByFarmer) {\r\n            farmerAddress = msg.sender;\r\n        } else {\r\n            storeAddress = msg.sender;\r\n        }\r\n        TransactionLedger[transactions] = Transaction({\r\n            transactionID: transactions,\r\n            farmerAddress: farmerAddress,\r\n            storeAddress: storeAddress,\r\n            dateRequestPosted: dateRequestPosted,\r\n            dateRequestAccepted: block.timestamp,\r\n            cropID: cropID,\r\n            cropQuantity: cropQuantity,\r\n            cropPrice: cropPrice,\r\n            transactionStatus: TransactionStatus.Requested\r\n        });\r\n        transactions += 1;\r\n        return transactions;\r\n    }\r\n\r\n    function acceptRequest(\r\n        int256 transactionID,\r\n        bool initByFarmer\r\n    ) public {\r\n        require(\r\n            TransactionLedger[transactionID].transactionStatus ==\r\n                TransactionStatus.Requested\r\n        );\r\n        if (initByFarmer) {\r\n            TransactionLedger[transactionID].farmerAddress = msg.sender;\r\n        } else {\r\n            TransactionLedger[transactionID].storeAddress = msg.sender;\r\n        }\r\n        TransactionLedger[transactionID].transactionStatus =\r\n                TransactionStatus.Accepted;\r\n    }\r\n\r\n    function completeRequest(int256 transactionID) public {\r\n        require(\r\n            TransactionLedger[transactionID].transactionStatus ==\r\n                TransactionStatus.Accepted\r\n        );\r\n        TransactionLedger[transactionID].transactionStatus = TransactionStatus\r\n            .Completed;\r\n    }\r\n\r\n    function deleteRequest(int256 transactionID) public {\r\n        require(\r\n            TransactionLedger[transactionID].transactionStatus !=\r\n                TransactionStatus.Completed\r\n        );\r\n        TransactionLedger[transactionID].transactionStatus = TransactionStatus\r\n            .Cancelled;\r\n    }\r\n}\r\n",
  "sourcePath": "D:\\Code Files\\Final Year\\FYP-backend\\Contracts\\contracts\\FYP.sol",
  "compiler": {
    "name": "solc",
    "version": "0.8.14+commit.80d49f37.Emscripten.clang"
  },
  "schemaVersion": "3.4.7",
  "updatedAt": "2023-01-26T07:31:14.205Z",
  "networkType": "ethereum",
  "devdoc": {
    "kind": "dev",
    "methods": {},
    "version": 1
  },
  "userdoc": {
    "kind": "user",
    "methods": {},
    "version": 1
  }
}