{
  "contractName": "FYP",
  "abi": [
    {
      "anonymous": false,
      "inputs": [
        {
          "indexed": false,
          "internalType": "int256",
          "name": "transactionID",
          "type": "int256"
        }
      ],
      "name": "TransactionBlockInitialized",
      "type": "event"
    },
    {
      "inputs": [
        {
          "internalType": "string",
          "name": "",
          "type": "string"
        }
      ],
      "name": "PostingLedger",
      "outputs": [
        {
          "internalType": "int256",
          "name": "postingNo",
          "type": "int256"
        },
        {
          "internalType": "bool",
          "name": "isFarmerPosting",
          "type": "bool"
        },
        {
          "internalType": "string",
          "name": "posterId",
          "type": "string"
        },
        {
          "internalType": "string",
          "name": "cropId",
          "type": "string"
        },
        {
          "internalType": "string",
          "name": "quantity",
          "type": "string"
        },
        {
          "internalType": "string",
          "name": "details",
          "type": "string"
        },
        {
          "internalType": "string",
          "name": "price",
          "type": "string"
        },
        {
          "internalType": "enum FYP.PostingStatus",
          "name": "postingStatus",
          "type": "uint8"
        }
      ],
      "stateMutability": "view",
      "type": "function",
      "constant": true
    },
    {
      "inputs": [
        {
          "internalType": "string",
          "name": "",
          "type": "string"
        }
      ],
      "name": "TransactionLedger",
      "outputs": [
        {
          "internalType": "int256",
          "name": "transactionID",
          "type": "int256"
        },
        {
          "internalType": "string",
          "name": "farmerId",
          "type": "string"
        },
        {
          "internalType": "string",
          "name": "companyId",
          "type": "string"
        },
        {
          "internalType": "string",
          "name": "requestId",
          "type": "string"
        },
        {
          "internalType": "uint256",
          "name": "dateRequestPosted",
          "type": "uint256"
        },
        {
          "internalType": "uint256",
          "name": "dateRequestAccepted",
          "type": "uint256"
        },
        {
          "internalType": "enum FYP.TransactionStatus",
          "name": "transactionStatus",
          "type": "uint8"
        }
      ],
      "stateMutability": "view",
      "type": "function",
      "constant": true
    },
    {
      "inputs": [],
      "name": "postings",
      "outputs": [
        {
          "internalType": "int256",
          "name": "",
          "type": "int256"
        }
      ],
      "stateMutability": "view",
      "type": "function",
      "constant": true
    },
    {
      "inputs": [],
      "name": "transactions",
      "outputs": [
        {
          "internalType": "int256",
          "name": "",
          "type": "int256"
        }
      ],
      "stateMutability": "view",
      "type": "function",
      "constant": true
    },
    {
      "inputs": [
        {
          "internalType": "uint256",
          "name": "dateRequestPosted",
          "type": "uint256"
        },
        {
          "internalType": "string",
          "name": "farmerId",
          "type": "string"
        },
        {
          "internalType": "string",
          "name": "companyId",
          "type": "string"
        },
        {
          "internalType": "string",
          "name": "requestId",
          "type": "string"
        }
      ],
      "name": "initTransactionBlock",
      "outputs": [
        {
          "internalType": "int256",
          "name": "",
          "type": "int256"
        }
      ],
      "stateMutability": "nonpayable",
      "type": "function"
    },
    {
      "inputs": [
        {
          "internalType": "bool",
          "name": "isFarmerPosting",
          "type": "bool"
        },
        {
          "internalType": "string",
          "name": "postingID",
          "type": "string"
        },
        {
          "internalType": "string",
          "name": "posterId",
          "type": "string"
        },
        {
          "internalType": "string",
          "name": "cropId",
          "type": "string"
        },
        {
          "internalType": "string",
          "name": "cropQuantity",
          "type": "string"
        },
        {
          "internalType": "string",
          "name": "cropDetails",
          "type": "string"
        },
        {
          "internalType": "string",
          "name": "cropPrice",
          "type": "string"
        }
      ],
      "name": "initPostBlock",
      "outputs": [
        {
          "internalType": "int256",
          "name": "",
          "type": "int256"
        }
      ],
      "stateMutability": "nonpayable",
      "type": "function"
    },
    {
      "inputs": [
        {
          "internalType": "string",
          "name": "requestId",
          "type": "string"
        }
      ],
      "name": "deleteRequest",
      "outputs": [],
      "stateMutability": "nonpayable",
      "type": "function"
    },
    {
      "inputs": [
        {
          "internalType": "string",
          "name": "postId",
          "type": "string"
        }
      ],
      "name": "deletePost",
      "outputs": [],
      "stateMutability": "nonpayable",
      "type": "function"
    }
  ],
  "bytecode": "0x608060405260008055600060015534801561001957600080fd5b50611469806100296000396000f3fe608060405234801561001057600080fd5b50600436106100885760003560e01c80638565332c1161005b5780638565332c14610115578063a8edc3af1461014c578063aa88ee8e14610168578063c2ebaf791461019e57610088565b8063180151911461008d57806330fdab50146100ab5780637e0dcbc7146100c757806382042b78146100e5575b600080fd5b6100956101ce565b6040516100a29190610c02565b60405180910390f35b6100c560048036038101906100c09190610d77565b6101d4565b005b6100cf610280565b6040516100dc9190610c02565b60405180910390f35b6100ff60048036038101906100fa9190610df8565b610286565b60405161010c9190610c02565b60405180910390f35b61012f600480360381019061012a9190610d77565b61040e565b604051610143989796959493929190611050565b60405180910390f35b61016660048036038101906101619190610d77565b61072e565b005b610182600480360381019061017d9190610d77565b6107da565b6040516101959796959493929190611152565b60405180910390f35b6101b860048036038101906101b39190611202565b6109d7565b6040516101c59190610c02565b60405180910390f35b60005481565b600060018111156101e8576101e7610fd9565b5b6003826040516101f891906112f9565b908152602001604051809103902060070160009054906101000a900460ff16600181111561022957610228610fd9565b5b1461023357600080fd5b600160038260405161024591906112f9565b908152602001604051809103902060070160006101000a81548160ff0219169083600181111561027857610277610fd9565b5b021790555050565b60015481565b600060405180610100016040528060015481526020018915158152602001878152602001868152602001858152602001848152602001838152602001600060018111156102d6576102d5610fd9565b5b8152506003886040516102e991906112f9565b90815260200160405180910390206000820151816000015560208201518160010160006101000a81548160ff021916908315150217905550604082015181600201908051906020019061033d929190610b46565b50606082015181600301908051906020019061035a929190610b46565b506080820151816004019080519060200190610377929190610b46565b5060a0820151816005019080519060200190610394929190610b46565b5060c08201518160060190805190602001906103b1929190610b46565b5060e08201518160070160006101000a81548160ff021916908360018111156103dd576103dc610fd9565b5b021790555090505060018060008282546103f7919061133f565b925050819055506001549050979650505050505050565b6003818051602081018201805184825260208301602085012081835280955050505050506000915090508060000154908060010160009054906101000a900460ff169080600201805461046090611402565b80601f016020809104026020016040519081016040528092919081815260200182805461048c90611402565b80156104d95780601f106104ae576101008083540402835291602001916104d9565b820191906000526020600020905b8154815290600101906020018083116104bc57829003601f168201915b5050505050908060030180546104ee90611402565b80601f016020809104026020016040519081016040528092919081815260200182805461051a90611402565b80156105675780601f1061053c57610100808354040283529160200191610567565b820191906000526020600020905b81548152906001019060200180831161054a57829003601f168201915b50505050509080600401805461057c90611402565b80601f01602080910402602001604051908101604052809291908181526020018280546105a890611402565b80156105f55780601f106105ca576101008083540402835291602001916105f5565b820191906000526020600020905b8154815290600101906020018083116105d857829003601f168201915b50505050509080600501805461060a90611402565b80601f016020809104026020016040519081016040528092919081815260200182805461063690611402565b80156106835780601f1061065857610100808354040283529160200191610683565b820191906000526020600020905b81548152906001019060200180831161066657829003601f168201915b50505050509080600601805461069890611402565b80601f01602080910402602001604051908101604052809291908181526020018280546106c490611402565b80156107115780601f106106e657610100808354040283529160200191610711565b820191906000526020600020905b8154815290600101906020018083116106f457829003601f168201915b5050505050908060070160009054906101000a900460ff16905088565b6000600181111561074257610741610fd9565b5b60028260405161075291906112f9565b908152602001604051809103902060060160009054906101000a900460ff16600181111561078357610782610fd9565b5b1461078d57600080fd5b600160028260405161079f91906112f9565b908152602001604051809103902060060160006101000a81548160ff021916908360018111156107d2576107d1610fd9565b5b021790555050565b60028180516020810182018051848252602083016020850120818352809550505050505060009150905080600001549080600101805461081990611402565b80601f016020809104026020016040519081016040528092919081815260200182805461084590611402565b80156108925780601f1061086757610100808354040283529160200191610892565b820191906000526020600020905b81548152906001019060200180831161087557829003601f168201915b5050505050908060020180546108a790611402565b80601f01602080910402602001604051908101604052809291908181526020018280546108d390611402565b80156109205780601f106108f557610100808354040283529160200191610920565b820191906000526020600020905b81548152906001019060200180831161090357829003601f168201915b50505050509080600301805461093590611402565b80601f016020809104026020016040519081016040528092919081815260200182805461096190611402565b80156109ae5780601f10610983576101008083540402835291602001916109ae565b820191906000526020600020905b81548152906001019060200180831161099157829003601f168201915b5050505050908060040154908060050154908060060160009054906101000a900460ff16905087565b60006040518060e00160405280600054815260200185815260200184815260200183815260200186815260200142815260200160006001811115610a1e57610a1d610fd9565b5b815250600283604051610a3191906112f9565b9081526020016040518091039020600082015181600001556020820151816001019080519060200190610a65929190610b46565b506040820151816002019080519060200190610a82929190610b46565b506060820151816003019080519060200190610a9f929190610b46565b506080820151816004015560a0820151816005015560c08201518160060160006101000a81548160ff02191690836001811115610adf57610ade610fd9565b5b02179055509050507fc3a1c294be4e658e31b70802689f0ca81d1b658cf22cd6d403a78d5e28188f38600054604051610b189190610c02565b60405180910390a16001600080828254610b32919061133f565b925050819055506000549050949350505050565b828054610b5290611402565b90600052602060002090601f016020900481019282610b745760008555610bbb565b82601f10610b8d57805160ff1916838001178555610bbb565b82800160010185558215610bbb579182015b82811115610bba578251825591602001919060010190610b9f565b5b509050610bc89190610bcc565b5090565b5b80821115610be5576000816000905550600101610bcd565b5090565b6000819050919050565b610bfc81610be9565b82525050565b6000602082019050610c176000830184610bf3565b92915050565b6000604051905090565b600080fd5b600080fd5b600080fd5b600080fd5b6000601f19601f8301169050919050565b7f4e487b7100000000000000000000000000000000000000000000000000000000600052604160045260246000fd5b610c8482610c3b565b810181811067ffffffffffffffff82111715610ca357610ca2610c4c565b5b80604052505050565b6000610cb6610c1d565b9050610cc28282610c7b565b919050565b600067ffffffffffffffff821115610ce257610ce1610c4c565b5b610ceb82610c3b565b9050602081019050919050565b82818337600083830152505050565b6000610d1a610d1584610cc7565b610cac565b905082815260208101848484011115610d3657610d35610c36565b5b610d41848285610cf8565b509392505050565b600082601f830112610d5e57610d5d610c31565b5b8135610d6e848260208601610d07565b91505092915050565b600060208284031215610d8d57610d8c610c27565b5b600082013567ffffffffffffffff811115610dab57610daa610c2c565b5b610db784828501610d49565b91505092915050565b60008115159050919050565b610dd581610dc0565b8114610de057600080fd5b50565b600081359050610df281610dcc565b92915050565b600080600080600080600060e0888a031215610e1757610e16610c27565b5b6000610e258a828b01610de3565b975050602088013567ffffffffffffffff811115610e4657610e45610c2c565b5b610e528a828b01610d49565b965050604088013567ffffffffffffffff811115610e7357610e72610c2c565b5b610e7f8a828b01610d49565b955050606088013567ffffffffffffffff811115610ea057610e9f610c2c565b5b610eac8a828b01610d49565b945050608088013567ffffffffffffffff811115610ecd57610ecc610c2c565b5b610ed98a828b01610d49565b93505060a088013567ffffffffffffffff811115610efa57610ef9610c2c565b5b610f068a828b01610d49565b92505060c088013567ffffffffffffffff811115610f2757610f26610c2c565b5b610f338a828b01610d49565b91505092959891949750929550565b610f4b81610dc0565b82525050565b600081519050919050565b600082825260208201905092915050565b60005b83811015610f8b578082015181840152602081019050610f70565b83811115610f9a576000848401525b50505050565b6000610fab82610f51565b610fb58185610f5c565b9350610fc5818560208601610f6d565b610fce81610c3b565b840191505092915050565b7f4e487b7100000000000000000000000000000000000000000000000000000000600052602160045260246000fd5b6002811061101957611018610fd9565b5b50565b600081905061102a82611008565b919050565b600061103a8261101c565b9050919050565b61104a8161102f565b82525050565b600061010082019050611066600083018b610bf3565b611073602083018a610f42565b81810360408301526110858189610fa0565b905081810360608301526110998188610fa0565b905081810360808301526110ad8187610fa0565b905081810360a08301526110c18186610fa0565b905081810360c08301526110d58185610fa0565b90506110e460e0830184611041565b9998505050505050505050565b6000819050919050565b611104816110f1565b82525050565b6002811061111b5761111a610fd9565b5b50565b600081905061112c8261110a565b919050565b600061113c8261111e565b9050919050565b61114c81611131565b82525050565b600060e082019050611167600083018a610bf3565b81810360208301526111798189610fa0565b9050818103604083015261118d8188610fa0565b905081810360608301526111a18187610fa0565b90506111b060808301866110fb565b6111bd60a08301856110fb565b6111ca60c0830184611143565b98975050505050505050565b6111df816110f1565b81146111ea57600080fd5b50565b6000813590506111fc816111d6565b92915050565b6000806000806080858703121561121c5761121b610c27565b5b600061122a878288016111ed565b945050602085013567ffffffffffffffff81111561124b5761124a610c2c565b5b61125787828801610d49565b935050604085013567ffffffffffffffff81111561127857611277610c2c565b5b61128487828801610d49565b925050606085013567ffffffffffffffff8111156112a5576112a4610c2c565b5b6112b187828801610d49565b91505092959194509250565b600081905092915050565b60006112d382610f51565b6112dd81856112bd565b93506112ed818560208601610f6d565b80840191505092915050565b600061130582846112c8565b915081905092915050565b7f4e487b7100000000000000000000000000000000000000000000000000000000600052601160045260246000fd5b600061134a82610be9565b915061135583610be9565b9250817f7fffffffffffffffffffffffffffffffffffffffffffffffffffffffffffffff038313600083121516156113905761138f611310565b5b817f80000000000000000000000000000000000000000000000000000000000000000383126000831216156113c8576113c7611310565b5b828201905092915050565b7f4e487b7100000000000000000000000000000000000000000000000000000000600052602260045260246000fd5b6000600282049050600182168061141a57607f821691505b60208210810361142d5761142c6113d3565b5b5091905056fea2646970667358221220c7eaca3d2c34fd8b38e5abd9da40f25ee0b16bd40b593422782a575d48c907da64736f6c634300080e0033",
  "immutableReferences": {},
  "source": "//SPDX-License-Identifier: UNLICENSED\r\npragma solidity ^0.8.0;\r\n\r\ncontract FYP {\r\n    int256 public transactions = 0;\r\n    int256 public postings = 0;\r\n    mapping(string => Transaction) public TransactionLedger;\r\n    mapping(string => Posting) public PostingLedger;\r\n\r\n    enum TransactionStatus {\r\n        Accepted,\r\n        Cancelled\r\n    }\r\n\r\n    enum PostingStatus {\r\n        Created,\r\n        Deleted\r\n    }\r\n\r\n    event TransactionBlockInitialized(int256 transactionID);\r\n\r\n    struct Transaction {\r\n        int256 transactionID;\r\n        string farmerId;\r\n        string companyId;\r\n        string requestId;\r\n        uint256 dateRequestPosted;\r\n        uint256 dateRequestAccepted;\r\n        TransactionStatus transactionStatus;\r\n    }\r\n\r\n    struct Posting{\r\n        int256 postingNo;\r\n        bool isFarmerPosting;\r\n        string posterId;\r\n        string cropId;\r\n        string quantity;\r\n        string details;\r\n        string price;\r\n        PostingStatus postingStatus;\r\n    }\r\n\r\n    function initTransactionBlock(\r\n        uint256 dateRequestPosted,\r\n        string memory farmerId,\r\n        string memory companyId,\r\n        string memory requestId\r\n    ) public returns (int256) {\r\n        TransactionLedger[requestId] = Transaction({\r\n            transactionID: transactions,\r\n            farmerId: farmerId,\r\n            companyId: companyId,\r\n            requestId: requestId,\r\n            dateRequestPosted: dateRequestPosted,\r\n            dateRequestAccepted: block.timestamp,\r\n            transactionStatus: TransactionStatus.Accepted\r\n        });\r\n        emit TransactionBlockInitialized(transactions);\r\n        transactions += 1;\r\n        return transactions;\r\n    }\r\n\r\n    function initPostBlock(\r\n        bool isFarmerPosting,\r\n        string memory postingID,\r\n        string memory posterId,\r\n        string memory cropId,\r\n        string memory cropQuantity,\r\n        string memory cropDetails,\r\n        string memory cropPrice\r\n    ) public returns (int256){\r\n        PostingLedger[postingID] = Posting({\r\n            postingNo: postings,\r\n            isFarmerPosting: isFarmerPosting,\r\n            posterId: posterId,\r\n            cropId: cropId,\r\n            quantity: cropQuantity,\r\n            details: cropDetails,\r\n            price: cropPrice,\r\n            postingStatus: PostingStatus.Created\r\n        });\r\n        postings += 1;\r\n        return postings;\r\n    }\r\n\r\n    function deleteRequest(string memory requestId) public {\r\n        require(\r\n            TransactionLedger[requestId].transactionStatus ==\r\n                TransactionStatus.Accepted\r\n        );\r\n        TransactionLedger[requestId].transactionStatus = TransactionStatus\r\n            .Cancelled;\r\n    }\r\n\r\n    function deletePost(string memory postId) public {\r\n        require(\r\n            PostingLedger[postId].postingStatus ==\r\n                PostingStatus.Created\r\n        );\r\n        PostingLedger[postId].postingStatus =\r\n                PostingStatus.Deleted;\r\n    }\r\n\r\n}\r\n",
  "sourcePath": "D:\\Code Files\\Final Year\\FYP-backend\\Contracts\\contracts\\FYP.sol",
  "compiler": {
    "name": "solc",
    "version": "0.8.14+commit.80d49f37.Emscripten.clang"
  },
  "schemaVersion": "3.4.7",
  "updatedAt": "2023-03-19T11:35:39.349Z",
  "networkType": "ethereum",
  "devdoc": {
    "kind": "dev",
    "methods": {},
    "version": 1
  },
  "userdoc": {
    "kind": "user",
    "methods": {},
    "version": 1
  }
}